:020000040000FA
:100000000C945C000C9479000C9479000C947900A9
:100010000C9479000C9479000C9479000C9479007C
:100020000C9479000C9479000C9479000C9479006C
:100030000C9479000C9479000C9479000C9479005C
:100040000C9440010C9479000C9479000C94790084
:100050000C9479000C9479000C9479000C9479003C
:100060000C9479000C947900000000002400270013
:100070002A0000000000250028002B0004040404CE
:100080000404040402020202020203030303030342
:10009000010204081020408001020408102001021F
:1000A00004081020000000080002010000030407FB
:1000B000000000000000000011241FBECFEFD8E0B8
:1000C000DEBFCDBF11E0A0E0B1E0EEE6F4E002C09B
:1000D00005900D92A234B107D9F721E0A2E4B1E076
:1000E00001C01D92AB34B207E1F70E948A010C9463
:1000F00035020C940000CF93DF93A0E2B1E030E032
:1001000020E0805D9E4FFC01408150E0BA01022E4C
:1001100002C0759567950A94E2F72115310509F437
:1001200060E08D919D919927FC01EC55FF4FD49192
:10013000FC01E057FF4FC491FC01E458FF4FE491EC
:10014000EE23D1F0DD2339F0D33049F1F0F4D13092
:1001500061F1D23071F1F0E0EE0FFF1FEE58FF4F6A
:10016000859194917FB7F894FC0160FD2FC0608168
:10017000C095C623C0837FBF2F5F3F4F2830310516
:1001800009F0C4CFDF91CF910895D730A9F0D830CE
:10019000C9F0D43001F7809180008F7D03C0809139
:1001A00080008F7780938000D6CF84B58F7784BD11
:1001B000D2CF84B58F7DFBCF8091B0008F778093B5
:1001C000B000C9CF8091B0008F7DF9CF6081C62B80
:1001D000D1CF3FB7F8948091470190914801A09109
:1001E0004901B0914A0126B5A89B05C02F3F19F0DF
:1001F0000196A11DB11D3FBFBA2FA92F982F8827A7
:10020000BC01CD01620F711D811D911D42E0660F81
:10021000771F881F991F4A95D1F708958F929F9253
:10022000AF92BF92CF92DF92EF92FF924B015C01AF
:100230000E94E9006B017C010E94E9006C197D09B4
:100240008E099F09683E734081059105A8F321E05E
:10025000821A9108A108B10888EEC80E83E0D81E62
:10026000E11CF11C81149104A104B10429F7FF9051
:10027000EF90DF90CF90BF90AF909F908F900895B8
:100280001F920F920FB60F9211242F933F938F93CB
:100290009F93AF93BF938091430190914401A091AC
:1002A0004501B09146013091420123E0230F2D37E3
:1002B00058F50196A11DB11D209342018093430181
:1002C00090934401A0934501B0934601809147016A
:1002D00090914801A0914901B0914A010196A11D58
:1002E000B11D8093470190934801A0934901B093B9
:1002F0004A01BF91AF919F918F913F912F910F90A4
:100300000FBE0F901F90189526E8230F0296A11D8F
:10031000B11DD2CF789484B5826084BD84B58160EC
:1003200084BD85B5826085BD85B5816085BD8091C0
:100330006E00816080936E00109281008091810038
:100340008260809381008091810081608093810030
:10035000809180008160809380008091B1008460F2
:100360008093B1008091B00081608093B000809153
:100370007A00846080937A0080917A008260809312
:100380007A0080917A00816080937A0080917A006F
:10039000806880937A001092C100A0E2B1E020E36F
:1003A00031E08D919D919927FC01E057FF4F4491D9
:1003B00084589F4FFC018491882399F090E0880F26
:1003C000991FFC01E859FF4FC591D491FC01EE58EB
:1003D000FF4F859194918FB7F894E881E42BE883DF
:1003E0008FBF2A173B07E9F680E2E82E81E0F82E5E
:1003F00090E0C92E90E0D92EC0E0D1E0099119918A
:10040000C8010E947B0068E572E080E090E00E94F5
:100410000E018AE090E00E947B0068EC70E080E0D2
:1004200090E00E940E01C8010E947B006CE271E026
:1004300080E090E00E940E018AE090E00E947B0044
:100440006AEF70E080E090E00E940E01EC16FD067D
:10045000A9F668EB7BE080E090E00E940E01C114F9
:10046000D10451F20E940000C7CFF894FFCF0000E2
:1004700001000200030001000A000400050006005C
:100480000A00070002000700060008000900020039
:100490000A00090008000700060005000400EEBF7E
:1004A0007CEC7A5660B61CFC0000000000000000E6
:107E0000112484B714BE81FFF0D085E080938100F7
:107E100082E08093C00088E18093C10086E0809377
:107E2000C20080E18093C4008EE0C9D0259A86E02C
:107E300020E33CEF91E0309385002093840096BBD3
:107E4000B09BFECF1D9AA8958150A9F7CC24DD24C4
:107E500088248394B5E0AB2EA1E19A2EF3E0BF2EE7
:107E6000A2D0813461F49FD0082FAFD0023811F036
:107E7000013811F484E001C083E08DD089C08234E0
:107E800011F484E103C0853419F485E0A6D080C0E4
:107E9000853579F488D0E82EFF2485D0082F10E0AE
:107EA000102F00270E291F29000F111F8ED06801E7
:107EB0006FC0863521F484E090D080E0DECF843638
:107EC00009F040C070D06FD0082F6DD080E0C81688
:107ED00080E7D80618F4F601B7BEE895C0E0D1E017
:107EE00062D089930C17E1F7F0E0CF16F0E7DF06D8
:107EF00018F0F601B7BEE89568D007B600FCFDCFD4
:107F0000A601A0E0B1E02C9130E011968C91119780
:107F100090E0982F8827822B932B1296FA010C0160
:107F200087BEE89511244E5F5F4FF1E0A038BF0790
:107F300051F7F601A7BEE89507B600FCFDCF97BE46
:107F4000E89526C08437B1F42ED02DD0F82E2BD052
:107F50003CD0F601EF2C8F010F5F1F4F84911BD097
:107F6000EA94F801C1F70894C11CD11CFA94CF0C13
:107F7000D11C0EC0853739F428D08EE10CD085E9AC
:107F80000AD08FE07ACF813511F488E018D01DD067
:107F900080E101D065CF982F8091C00085FFFCCF94
:107FA0009093C60008958091C00087FFFCCF809118
:107FB000C00084FD01C0A8958091C6000895E0E648
:107FC000F0E098E1908380830895EDDF803219F02E
:107FD00088E0F5DFFFCF84E1DECF1F93182FE3DFCA
:107FE0001150E9F7F2DF1F91089580E0E8DFEE27F6
:047FF000FF270994CA
:027FFE00040479
:00000001FF
