:100000000C945C000C9479000C9479000C947900A9
:100010000C9479000C9479000C9479000C9479007C
:100020000C9479000C9479000C9479000C9479006C
:100030000C9479000C9479000C9479000C9479005C
:100040000C9440010C9479000C9479000C94790084
:100050000C9479000C9479000C9479000C9479003C
:100060000C9479000C947900000000002400270013
:100070002A0000000000250028002B0004040404CE
:100080000404040402020202020203030303030342
:10009000010204081020408001020408102001021F
:1000A00004081020000000080002010000030407FB
:1000B000000000000000000011241FBECFEFD8E0B8
:1000C000DEBFCDBF11E0A0E0B1E0E0E6F4E002C0A9
:1000D00005900D92AC31B107D9F721E0ACE1B1E068
:1000E00001C01D92A532B207E1F70E948A010C946B
:1000F0002E020C940000CF93DF93A0E0B1E030E03B
:1001000020E0805F9E4FFC01408150E0BA01022E4A
:1001100002C0759567950A94E2F72115310509F437
:1001200060E08D919D919927FC01EC55FF4FD49192
:10013000FC01E057FF4FC491FC01E458FF4FE491EC
:10014000EE23D1F0DD2339F0D33049F1F0F4D13092
:1001500061F1D23071F1F0E0EE0FFF1FEE58FF4F6A
:10016000859194917FB7F894FC0160FD2FC0608168
:10017000C095C623C0837FBF2F5F3F4F2830310516
:1001800009F0C4CFDF91CF910895D730A9F0D830CE
:10019000C9F0D43001F7809180008F7D03C0809139
:1001A00080008F7780938000D6CF84B58F7784BD11
:1001B000D2CF84B58F7DFBCF8091B0008F778093B5
:1001C000B000C9CF8091B0008F7DF9CF6081C62B80
:1001D000D1CF3FB7F8948091210190912201A09155
:1001E0002301B091240126B5A89B05C02F3F19F02B
:1001F0000196A11DB11D3FBFBA2FA92F982F8827A7
:10020000BC01CD01620F711D811D911D42E0660F81
:10021000771F881F991F4A95D1F708958F929F9253
:10022000AF92BF92CF92DF92EF92FF924B015C01AF
:100230000E94E9006B017C010E94E9006C197D09B4
:100240008E099F09683E734081059105A8F321E05E
:10025000821A9108A108B10888EEC80E83E0D81E62
:10026000E11CF11C81149104A104B10429F7FF9051
:10027000EF90DF90CF90BF90AF909F908F900895B8
:100280001F920F920FB60F9211242F933F938F93CB
:100290009F93AF93BF9380911D0190911E01A091F8
:1002A0001F01B091200130911C0123E0230F2D3755
:1002B00058F50196A11DB11D20931C0180931D01CD
:1002C00090931E01A0931F01B09320018091210102
:1002D00090912201A0912301B09124010196A11DCA
:1002E000B11D8093210190932201A0932301B0932B
:1002F0002401BF91AF919F918F913F912F910F90CA
:100300000FBE0F901F90189526E8230F0296A11D8F
:10031000B11DD2CF789484B5826084BD84B58160EC
:1003200084BD85B5826085BD85B5816085BD8091C0
:100330006E00816080936E00109281008091810038
:100340008260809381008091810081608093810030
:10035000809180008160809380008091B1008460F2
:100360008093B1008091B00081608093B000809153
:100370007A00846080937A0080917A008260809312
:100380007A0080917A00816080937A0080917A006F
:10039000806880937A001092C100A0E0B1E020E173
:1003A00031E08D919D919927FC01E057FF4F4491D9
:1003B00084589F4FFC018491882399F090E0880F26
:1003C000991FFC01E859FF4FC591D491FC01EE58EB
:1003D000FF4F859194918FB7F894E881E42BE883DF
:1003E0008FBF2A173B07E9F600E010E0D0E0C0E03D
:1003F000CE010E947B0068E572E080E090E00E9400
:100400000E018AE090E00E947B0066E970E080E0E7
:1004100090E00E940E01CE010E947B0068EC70E02B
:1004200080E090E00E940E018AE090E00E947B0054
:1004300068EC70E080E090E00E940E012196CA30E6
:10044000D105B1F660ED77E080E090E00E940E010A
:100450000115110559F20E940000C8CFF894FFCF92
:1004600002000A0009000800070006000500040059
:0C047000FC60DAF266B6BEE0FEF60000AA
:00000001FF
