:100000000C945C000C9479000C9479000C947900A9
:100010000C9479000C9479000C9479000C9479007C
:100020000C9479000C9479000C9479000C9479006C
:100030000C9479000C9479000C9479000C9479005C
:100040000C9442010C9479000C9479000C94790082
:100050000C9479000C9479000C9479000C9479003C
:100060000C9479000C947900000000080002010053
:100070000003040700000000000000000000000072
:10008000250028002B0000000000240027002A0083
:10009000040404040404040402020202020203032E
:1000A0000303030301020408102040800102040836
:1000B000102001020408102011241FBECFEFD8E049
:1000C000DEBFCDBF11E0A0E0B1E0E6E7F4E002C0A2
:1000D00005900D92A633B107D9F721E0A6E3B1E070
:1000E00001C01D92AF33B207E1F70E948C010C945E
:1000F00039020C9400003FB7F89480913B01909135
:100100003C01A0913D01B0913E0126B5A89B05C0E0
:100110002F3F19F00196A11DB11D3FBFBA2FA92F86
:10012000982F8827BC01CD01620F711D811D911D83
:1001300042E0660F771F881F991F4A95D1F70895EF
:100140008F929F92AF92BF92CF92DF92EF92FF92E7
:100150004B015C010E947B006B017C010E947B00D3
:100160006C197D098E099F09683E734081059105D0
:10017000A8F321E0821A9108A108B10888EEC80E00
:1001800083E0D81EE11CF11C81149104A104B10488
:1001900029F7FF90EF90DF90CF90BF90AF909F90A6
:1001A0008F9008951F93CF93DF93ACE0B1E030E0E0
:1001B00020E080509F4FFC01408150E0CA01022E98
:1001C00002C0959587950A94E2F7182F11702115B2
:1001D000310509F4162F8D919D919927FC01E8595D
:1001E000FF4FC491FC01EC55FF4F7491FC01E057A7
:1001F000FF4FE491EE23C9F0CC2339F0C33049F12D
:10020000F0F4C13061F1C23071F1F0E0EE0FFF1F88
:10021000E458FF4FC591D491FFB7F894E8811111CC
:100220002FC070957E237883FFBF2F5F3F4F28300C
:10023000310509F0C3CFDF91CF911F910895C730E9
:10024000A9F0C830C9F0C43001F7809180008F7DDB
:1002500003C0809180008F7780938000D6CF84B5D3
:100260008F7784BDD2CF84B58F7DFBCF8091B000D6
:100270008F778093B000C9CF8091B0008F7DF9CF88
:100280007E2BD1CF1F920F920FB60F9211242F9376
:100290003F938F939F93AF93BF938091370190913A
:1002A0003801A0913901B0913A013091360123E033
:1002B000230F2D3758F50196A11DB11D209336014E
:1002C0008093370190933801A0933901B0933A019C
:1002D00080913B0190913C01A0913D01B0913E0184
:1002E0000196A11DB11D80933B0190933C01A09309
:1002F0003D01B0933E01BF91AF919F918F913F918E
:100300002F910F900FBE0F901F90189526E8230F86
:100310000296A11DB11DD2CF789484B5826084BDB0
:1003200084B5816084BD85B5826085BD85B58160F9
:1003300085BD80916E00816080936E001092810077
:100340008091810082608093810080918100816032
:1003500080938100809180008160809380008091F3
:10036000B10084608093B1008091B000816080937F
:10037000B00080917A00846080937A0080917A0046
:10038000826080937A0080917A00816080937A0005
:1003900080917A00806880937A001092C100ACE06E
:1003A000B1E02CE131E08D919D919927FC01EC5554
:1003B000FF4F449180579F4FFC018491882399F00F
:1003C00090E0880F991FFC01EA57FF4FC591D49127
:1003D000FC01E458FF4F859194918FB7F894E88120
:1003E000E42BE8838FBF2A173B07E9F680E0E82E6D
:1003F00080E0F82E0CE111E0D0E0C0E0CE018B7F70
:1004000061E0019721F0C830D10509F060E0F80102
:10041000819191918F010E94D20064E670E080E0AA
:1004200090E00E94A00060E08BE090E00E94D2008B
:1004300066E970E080E090E00E94A00060E08BE060
:1004400090E00E94D20068EC70E080E090E00E94B2
:10045000A0002196CD30D10589F660ED77E080E0EF
:1004600090E00E94A000E114F10421F20E9400003B
:06047000C1CFF894FFCF9C
:10047600BEFC60DAF266B63EE0FEE60002000A0066
:1004860009000800070006000500040000000B0034
:100496000300040002000B00030003000B00010030
:0604A60001000400090042
:00000001FF
